:020000040800F2
:1000000040070020B5010008430F0008410F000819
:1000100000000000000000000000000000000000E0
:10002000000000000000000000000000470F000872
:100030000000000000000000450F0008490F000804
:10004000C7010008C7010008C7010008C701000870
:10005000C7010008C7010008C7010008C701000860
:10006000C7010008C7010008C7010008C701000850
:10007000C7010008C7010008C7010008C701000840
:10008000C7010008C701000800000000C701000800
:10009000C7010008C7010008C7010008C701000820
:1000A000C7010008C7010008C7010008C701000810
:1000B000C701000800000000C701000800F002F8B6
:1000C00000F04CF812A030C8083824182D18AC42A3
:1000D00001D100F043F80FCCA246AB460CA730CFBD
:1000E0002D1B083F3F197C427F1E54442D090426D6
:1000F000F441641EAC4201D300F030F801263342D3
:1001000000D0FB1A3343984754465D46DFE70000B2
:10011000CC160000EC160000103A02D378C878C163
:10012000FAD8520701D330C830C101D504680C6039
:1001300070470000704700000023002400250026BF
:10014000103A01D378C1FBD8520700D330C100D593
:100150000B6070471FB51FBD10B510BD00F0AAF8A9
:100160001146FFF7F7FF01F027F900F0C2F803B4DA
:10017000FFF7F2FF03BC00F0C9F8000070B50546B8
:100180000C46164602E00FCC0FC5103E102EFAD2D8
:10019000082E02D303CC03C5083E042E07D301CC9E
:1001A00001C5361F03E021782970641C6D1C761E82
:1001B000F9D270BD0748804707480047FEE7FEE7D1
:1001C000FEE7FEE7FEE7FEE704480549054A064B61
:1001D00070470000510F0008BD00000840010020DA
:1001E000400700204003002040030020F8B5042A07
:1001F0002CD3830712D00B78491C0370401C521E6D
:1002000083070BD00B78491C0370401C521E8307D8
:1002100004D00B78491C0370401C521E8B079B0FA7
:1002200005D0C91ADF002023DE1B08C90AE0FFF74A
:10023000A5FFF8BD1D4608C9FD401C46B4402C432F
:1002400010C0121F042AF5D2F308C91A521EF0D4A6
:100250000B78491C0370401C521EEAD40B78491CD1
:100260000370401C012AE4D409780170F8BD01E054
:1002700004C0091F0429FBD28B0701D50280801C12
:10028000C90700D00270704700290BD0C30702D005
:100290000270401C491E022904D3830702D5028044
:1002A000801C891EE3E70022EEE70022DFE77047AB
:1002B00070477047754600F025F8AE460500694660
:1002C0005346C008C000854618B020B5FFF77CFF34
:1002D00060BCB64600260027C0C5C0C5C0C5C0C5A5
:1002E000C0C5C0C5C0C5C0C5403D490849008D4610
:1002F000704710B50446C046C0462046FFF737FF9A
:1003000010BD00000048704710000020014918206F
:10031000ABBEFEE72600020070470000F0B58BB0D0
:1003200008900A68002A00D1CAE00F46654808997B
:10033000814201D0052000E00320009000231C46EC
:10034000099301970CE0294331605B1C3A68104621
:10035000D8400999091D0991A41C002800D1AFE0DB
:10036000012604969E4032400392EED00793384611
:1003700003273946A140C9432346446825463D40EA
:100380006A1E012A0294069313D8059108998A6877
:10039000059F3A40C7689F4017438F60E206D20F1F
:1003A000079B9A404F68B743084605991743476033
:1003B00007E0032D0898079B03D13D46019F029C4F
:1003C00020E0C2680A40019FBE6806988640164336
:1003D0000898C6600898022D029C13D105911C2133
:1003E000099A11400F228A40DD08AD0045192E6A96
:1003F00096433A698A400599324308982A627C6894
:1004000003252540069B9D4002680A402A4302605E
:10041000A1031C46079B890F97D05B480168049E87
:1004200031430160016831400A910322194691432A
:100430000A9A26480D580922D2060898904208D0F8
:10044000234A904206D0234A9042009E02D10226BF
:1004500000E000260C220998024037460F269640FD
:10046000B5431A48091897402F430F60164EB168DC
:10047000019F7868C20210D5039D2943B160F168DD
:10048000820210D4A943F1607168820310D4A94399
:1004900071603168C00311D555E7039DA943B16070
:1004A000F1688202EED52943F16071688203EED5CE
:1004B000294371603168C00300D544E7A94343E78D
:1004C0000BB0F0BD000C00480004014008000140E2
:1004D0000004004800080048002A02D01822815079
:1004E0007047282281507047054800687047C04611
:1004F0001A48007802490A68101808607047C04618
:100500003C01002080B5C448016810220A43026003
:10051000032000F005F800F023F8002080BDC0465D
:1005200070B504467D20C0000C4E317801F03EF8D5
:100530000146C148006801F039F800F0A1FB01252F
:10054000032C08D8002806D10025E84321462A4676
:1005500000F01CF87460284670BDC0460000002002
:1005600082B009480168012211430160016811400D
:1005700001910199110742680A43426040680840AE
:100580000090009802B0704718100240002805D46F
:100590000322034693430A4A9A1803E00C220240BE
:1005A000064BD2188007C00E8901C9B28140FF23D3
:1005B00083401068984308431060704714ED00E0D2
:1005C00000E400E0F0B585B004468078C007414BF8
:1005D0004FD00120039001071A1F106808400290B5
:1005E00006D1106808431060106808400490049811
:1005F00000920191384E3068C00513D40398070269
:10060000306838433060FFF76FFF05463068384286
:1006100008D1FFF769FF401B6428F7D90325284656
:1006200005B0F0BD032528022A4B1968014012D0FD
:100630006268024091420ED00398000419681A685B
:1006400002431A601A6882431A600846234A10401F
:100650001860C80730D11868204908406168014314
:1006600019600298002804D1009A10680199884303
:1006700010602068C10705D181060BD40025400514
:10068000CDD510E0196903229143A2680A431A618B
:100690008106F3D5196910229143E2680A431A6171
:1006A00000254005BBD518694021884321690143D5
:1006B0001961284605B0F0BDFFF716FF0646574FF3
:1006C000044B18688007C6D4FFF70EFF801BB842A2
:1006D000F6D9A4E72010024000700040FFFCFFFFA5
:1006E000F0B581B000284ED004464B4A1368012073
:1006F00003408B4208D213680126B3430B431360B7
:10070000126832408A423FD1009121688A075A4BD1
:1007100010D54A0706D5072212021B681343564A12
:100720001360554B1A68F0239A43A3681343524A47
:100730001360514BC9072AD1374908680126304058
:10074000009A904205D90868B04308600868C0075D
:100750001AD12078400706D5072000021968814386
:10076000E0680843186019680C220A404348082AC8
:1007700018D18A02120F424B9C5C3F4B9A6AC90304
:1007800032D4414837E00126304601B0F0BD6168FF
:100790001A1F022908D001290BD1126892030646BC
:1007A000F2D50AE0044627E0126892010646EBD52E
:1007B00003E0126892070646E6D518680326B043A0
:1007C00008431860FFF790FE0746144D2A4B18683F
:1007D0000C210140606880008142ADD0FFF784FEAB
:1007E000C01BA842F2D9CFE70F210A402549895CF6
:1007F00000F0DCFE204B444318680006000F084957
:10080000085CC4400C4804600320FFF789FE002602
:10081000304601B0F0BDC046002002408813000001
:10082000A217000804480068134909684905490FE0
:10083000024A515CC840704708000020B217000807
:1008400010B50D490A680C2313400C48082B09D138
:1008500093021B0F0A4CE45C896AD20303D40A4852
:100860004443204610BD0F221140064A515C00F05F
:100870009DFE4443204610BD0410024000127A0041
:10088000BA170008CA17000800093D00F0B587B084
:1008900004460120002C00D1EAE104902078C00732
:1008A000F44E059426D071680C20014004291AD01A
:1008B00071680140082902D17068C00313D46168CF
:1008C00001204704002900D184E1052900D198E1E5
:1008D000012900D199E1010432688A433260810420
:1008E0003068884394E13068800303D5606800284D
:1008F00000D1BDE0207880071AD570680007800F0E
:1009000007D070680C210140082975D17068C003B8
:1009100072D430688007059C03D5E068012800D0B8
:10092000A6E03068F82188432169C900014331609D
:10093000059C2078000724D42078400736D42078FE
:10094000C00600D4B4E005984069411D00D1A3E081
:10095000012800D0F4E0706B042101437163706BD7
:10096000012101437163FFF7BFFD0546706B8007EE
:1009700000D595E0FFF7B8FD411B03200229F5D90A
:1009800076E1706AE169002960D001210843706254
:10099000FFF7AAFD0546706A8007CDD4FFF7A4FDD6
:1009A000401B0228F7D9032007B0F0BD01200390B7
:1009B0000107F0690840029006D1F0690843F06130
:1009C000F0690840069006980191AB4F3868C00561
:1009D00028D403980402386820433860FFF784FD68
:1009E0000546386820421DD1FFF77EFD401B642874
:1009F000F7D9032007B0F0BD3068059CE1680029F5
:100A000039D0012108433060FFF76EFD054630689C
:100A1000800786D4FFF768FD401B0228F7D9032022
:100A200007B0F0BD05988068944F002800D19CE085
:100A3000052800D1AEE0012800D1AFE0306A03996B
:100A400088433062306A04218843AAE00121884348
:100A50007062FFF749FD0546706A800700D46BE7B6
:100A6000FFF742FD401B0228F6D9032007B0F0BD76
:100A7000049807B0F0BD012188433060FFF734FDD2
:100A800005463068800700D452E7FFF72DFD411B73
:100A900003200229F5D9EBE0706B042188437063D1
:100AA000706BF821884305998969C9000143716316
:100AB0000598046A002C1ED070680C21014008299A
:100AC0001CD1012C049800D1D2E0012003047168EC
:100AD0000B40F26A059D6C6AA34200D0C8E00F2368
:100AE0001A40EC6AA24200D0C2E09A041140AA6AFD
:100AF000914200D0BCE0002007B0F0BD012002060A
:100B000031680492914331604706FFF7EDFC0546DA
:100B1000022C0BD1049C3068384200D188E0FFF7EA
:100B2000E3FC411B03200229F5D9A1E030683842DB
:100B3000E1D0FFF7D9FC411B03200229F6D997E049
:100B4000706B042101437163706B012188437063F2
:100B5000FFF7CAFC0546706B8007A9D5FFF7C4FCF8
:100B6000411B03200229F6D982E0306A03998843A9
:100B70003062306A042188433062FFF7B5FC0546D5
:100B8000306A80071CD5FFF7AFFC411B0320B94238
:100B9000F6D96DE0306A042101433162306A03996D
:100BA00008433062FFF7A0FC0546306A800707D48F
:100BB000FFF79AFC401BB842F7D9032007B0F0BDFD
:100BC00002980028059C00D0B9E6F0690199884395
:100BD000F061B4E6010432688A433260800431680F
:100BE00081433160FFF780FC0546059C3068384240
:100BF00000D17FE6FFF778FC411B03206429F5D97B
:100C000036E0810432680A433260010430680843E8
:100C10003060FFF769FC05463068384200D069E66D
:100C2000FFF762FC401B6428F6D9032007B0F0BD33
:100C3000F06A0F218843059AD16A0143F1623D2091
:100C4000000471688143906A0843516A01437160EE
:100C5000306820433060FFF747FC04463068384274
:100C600000D048E7FFF740FC011B03200229F5D91B
:100C700007B0F0BD00100240007000408813000073
:100C8000401E010E01D0012070470749074A5060FD
:100C9000074803680B4003218907591801600020A9
:100CA0009060072111607047FFFFFF0010E000E037
:100CB00020ED00E0B0B5002817D00446C06F002832
:100CC00005D1782000212154204600F02BF8242063
:100CD000E067206801680125A9430160204600F013
:100CE00003FA002803D02846B0BD0120B0BD606AD9
:100CF000002802D0204600F02CF90920C00221680B
:100D00004A6882434A6088682A229043886008685B
:100D1000012202430A60204600F084F90546284675
:100D2000B0BD000080B586B000681349884201D08C
:100D300006B080BD11484168012205929303194312
:100D400041604168194000910099510402680A43CA
:100D5000026000680840009000200390022002908A
:100D600003200490400201900920C006009901A9C7
:100D7000FFF7D4FA06B080BD0038014014100240DD
:100D8000F0B585B0044605465835A86A202812D12A
:100D90000E46012700290BD0002A09D0012739036C
:100DA000A06888420BD1F00709D02069002806D13D
:100DB000384605B0F0BD0227384605B0F0BD0191B8
:100DC00004930027EF622220A86227660292FFF7B1
:100DD0008BFB0390029868802880A068002808D0C8
:100DE00001998842049909D1206900280FD0FF2079
:100DF00009E02069002804D07F2003E0AF8002973B
:100E000003E0FF2004990290A88001970FE04B486F
:100E10000290A88000200196064608E0019908800B
:100E2000891C0191002604996888401E68806888A2
:100E3000002813D000912021002720463A46039B2A
:100E400000F0E8F9002808D12068808C0299084059
:100E5000002EE3D03070761CE5E703272020A8623F
:100E6000384605B0F0BDC046F0B585B00546C06F48
:100E7000202811D1012000290CD01646002A09D0C3
:100E800001200703AA68BA4209D1CA0707D02A6914
:100E9000002A04D105B0F0BD022005B0F0BD0191DB
:100EA00003932C4650340020029060632120E867B1
:100EB000FFF71AFB049066802680A868B84202D12A
:100EC0002869002801D0019F02E0002701980290C4
:100ED00003990BE0029A1188184B19400185921C66
:100EE0000292374603996088401E6080608800281F
:100EF00010D000918021002628463246049B00F045
:100F000089F9002814D12868002FE3D039780185A9
:100F10007F1CE7E70091402100222846049B00F057
:100F200079F92021E9670028B4D0032005B0F0BD8D
:100F30002020E867032005B0F0BDC046FF01000097
:100F4000FEE7FEE77047704780B5FFF7D1FA80BD36
:100F50007047B0B5416ACA070CD18A0714D44A0752
:100F60001CD40A0724D4CA062CD48A0634D44A06D0
:100F70003CD44CE00122520403685C689443826ACA
:100F800022435A608A07EAD50122120403685C688A
:100F90009443C26A22435A604A07E2D5012292046E
:100FA00003685C689443026B22435A600A07DAD5EF
:100FB0000122D20303685C689443426B22435A6067
:100FC000CA06D2D50122120303689C689443826B3F
:100FD00022439A608A06CAD50122520303689C689C
:100FE0009443C26B22439A604A0610D5012213052E
:100FF000026854689C43056C2C4354609D4206D1A2
:1010000003235B0554689C43436C234353600906E8
:1010100007D50121C904026853688B43806C1843CB
:101020005060B0BDF0B583B0044606467836002760
:10103000F760FFF759FA03462068016809071FD5D2
:1010400028480090012002904105002220461D46BC
:1010500000F0E0F8002811D0EFF31080029981F33E
:10106000108821680A6880239A430A6080F31088F8
:101070002020E0670320377003B0F0BD20682B46C6
:101080000068400725D5174800900125A9050022D2
:10109000204600F0BFF800281BD0EFF3108085F346
:1010A000108809214901226813688B43136080F37B
:1010B0001088EFF3108085F3108821688A68AA43AE
:1010C0008A6080F310882020B0600320377003B05E
:1010D000F0BD2020E067B06027666766384637704D
:1010E00003B0F0BDFFFFFF01B0B504460068016822
:1010F0003E4A0A40A16823690B4365691D431543B5
:10110000E1690D4305600322120343689343E268DB
:101110001A434260A269236A13430B2212028568B4
:1011200095431D438560324A904209D0314A90422E
:1011300008D1314800688007000F30A2135802E040
:10114000002300E010230125EA03304891420FD12B
:10115000082B46D87B441B795B009F4404421F4206
:10116000194242421E00FFF75DFB002816D137E00E
:10117000082B36D87B441B795B009F440432253210
:101180001F3232322400FFF74DFB00281CD127E02C
:10119000FFF756FB002801D122E0104640006168AD
:1011A0004A08101800F002FA0246103A18498A421A
:1011B00017D201400007400F08430FE0FFF740FB44
:1011C000002801D10CE0104661684A08101800F0B0
:1011D000EDF9014610390E4A914202D22168C860E9
:1011E00000250020A066E0662846B0BDF369FFFF39
:1011F0000044004000380140301002400000000070
:1012000004000000080000000200000000127A0044
:10121000F0FF0000F0B587B015460F460668F1698B
:101220003940C91B4A424A410021AA4225D10693AE
:101230000C9C002C24D00B46611C26D1F16939404E
:10124000C91B4A424A41AA4214D1F1693940C91B1B
:101250004A424A41AA420DD1F1693940C91B4A426A
:101260004A41AA4206D1F1693940C91B4A424A4162
:10127000AA42E3D0184607B0F0BD084607B0F0BD5B
:10128000FFF732F9032007B0F0BD02930146783131
:10129000039101210191C9020491059006E0C969F9
:1012A0003940CA1B51425141A9424BD1FFF71CF9A9
:1012B0000699411A0323A142DCD8059801680A68FF
:1012C0005207ECD5CA6912073FD4CA692646049C66
:1012D00022423446E3D01F4604980862EFF310829E
:1012E000012181F3108809235B01059804682568B2
:1012F0009D43256082F31088EFF3108281F31088FC
:10130000059803689C688C439C60059882F310885C
:10131000026E012A0BD1EFF3108281F3108801686D
:101320000B681024A3430B60059882F310882021DA
:10133000039B99600022026682661A70D960384663
:1013400007B0F0BD029807B0F0BD08250D62EFF3BD
:101350001081019880F3108809225201059B1B68B7
:101360001C6894431C6081F31088EFF3108180F3B4
:101370001088059A1268936883439360059B81F3F4
:101380001088196E01290CD1EFF31081012282F32C
:1013900010881A6813681024A3431360059B81F317
:1013A00010882021039A91600021196699661170B6
:1013B000D56007B0F0BD0000D0B502AF9AB06E4660
:1013C000F51D0D35F01D11303061FFF79BF8F41D50
:1013D0003134201D2C21FEF768FF002169641020A4
:1013E0000122B2602A6368630220F56068620D46DC
:1013F00071623162F161306901602046FFF746FA9F
:10140000002803D0EFF3108072B6FEE70720F468DF
:101410006061A561E5612562F01D21302946FFF775
:101420005FF9002803D0EFF3108072B6FEE7306951
:101430004560B0682060F01D0D30FFF7C3F800284C
:1014400003D0EFF3108072B6FEE76563B068C104A5
:101450000346514802680A43026002680A4022605B
:101460002168590402680A4302600068084020604D
:1014700020681902316149482A46FFF72DF8306982
:101480006062B068A062E5622563F11D31314348B6
:10149000FEF744FF42480C214B225202414B0360AD
:1014A00042608560C560056141618561C561056215
:1014B0004562FFF7FFFB002803D0EFF3108072B600
:1014C000FEE73560EC43364D374B346103E070681E
:1014D00085463469324D0122284619462346FFF7D6
:1014E0004FFC314B1878411EC8B20328F3D849018C
:1014F000203159706946716040016946081A2038E8
:10150000B060854658780028E1D0346803E0F1687F
:10151000C8B284421CDA9D1C202221482946336926
:10152000FFF72EFC204B59780028F1D122462034B9
:10153000F160C8B28442214600DB01469142E6DDFB
:10154000B06880188A1A2946FEF750FE164BDEE76F
:101550000906BCD00024254604E0134B5878854288
:101560002C46B4DA203585422A4600DB0246A242E8
:1015700007DDB0680119121B22331846FEF736FE4C
:10158000094B22332022064819463369FFF76CFCC9
:101590000028E2D02546E0E7141002400008004889
:1015A000B4000020003801407000002043088B4246
:1015B0001AD3002203098B4279D3030A8B425ED3EC
:1015C000030B8B4242D3030C8B4227D30902FF2229
:1015D00012BA030C8B4202D31212090203D0030B7E
:1015E0008B4233D31AE0D3E0411A8041401C70474C
:1015F00003460B4371D443088B42F5D30022030901
:101600008B4254D3030A8B4239D3030B8B421DD335
:10161000030C8B4202D394466EE0090AC30B8B4243
:1016200001D3CB03C01A5241830B8B4201D38B03EE
:10163000C01A5241430B8B4201D34B03C01A524193
:10164000030B8B4201D30B03C01A5241C30A8B42D6
:1016500001D3CB02C01A5241830A8B4201D38B02C1
:10166000C01A5241430A8B4201D34B02C01A524165
:10167000030A8B4201D30B02C01A5241CDD2C309D7
:101680008B4201D3CB01C01A524183098B4201D353
:101690008B01C01A524143098B4201D34B01C01A3E
:1016A000524103098B4201D30B01C01A5241C308B6
:1016B0008B4201D3CB00C01A524183088B4201D325
:1016C0008B00C01A524143088B4201D34B00C01A11
:1016D0005241411A524110007047CA0F00D049428E
:1016E000031000D34042534000229C4603098B4222
:1016F0002DD3030A8B4212D38901FC2212BA030AAA
:101700008B420CD3890192118B4208D3890192112B
:101710008B4204D3890137D0921100E08909C309B3
:101720008B4201D3CB01C01A524183098B4201D3B2
:101730008B01C01A524143098B4201D34B01C01A9D
:10174000524103098B4201D30B01C01A5241C30815
:101750008B4201D3CB00C01A524183088B4201D384
:101760008B00C01A5241D9D243088B4201D34B009F
:10177000C01A5241411A00D20146524110466346F6
:101780005B1000D34042704763465B1000D3404279
:1017900001B50021004201D0C9430846C046C046F9
:1017A00002BD000000000000000001020304060763
:1017B00008090000000001020304020304050607F3
:1017C00008090A0B0C0D0E0F101001020304050688
:1017D0000708090A0B0C0D0E0F1000000018000876
:1017E0000000002010000000180100081018000878
:1017F0001000002030070000380100080000000041
:10180000010000000400000000127A000000000047
:04000005080000BD32
:00000001FF
