:020000040800F2
:10000000000800209D010008EB180008E91800080E
:1000100000000000000000000000000000000000E0
:10002000000000000000000000000000EF180008C1
:100030000000000000000000ED180008F1180008A2
:10004000AF010008AF010008AF010008AF010008D0
:10005000AF010008AF010008AF010008AF010008C0
:10006000AF010008AF010008AF010008AF010008B0
:10007000AF010008AF010008AF010008AF010008A0
:10008000AF010008AF01000800000000AF01000848
:10009000AF010008AF010008AF010008AF01000880
:1000A000AF010008AF010008AF010008AF01000870
:1000B000AF01000800000000AF01000800F002F8E6
:1000C00000F05CF812A030C8083824182D18AC4293
:1000D00001D100F053F80FCCA246AB460CA730CFAD
:1000E0002D1B083F3F197C427F1E54442D090426D6
:1000F000F441641EAC4201D300F040F801263342C3
:1001000000D0FB1A3343984754465D46DFE70000B2
:10011000E01F000000200000103A02D378C878C128
:10012000FAD8520701D330C830C101D504680C6039
:1001300070470000704700000023002400250026BF
:10014000103A01D378C1FBD8520700D330C100D593
:100150000B60704710B5782902D100F07FF810BD10
:10016000002010BD1FB50098019900F052FC00F06E
:100170004DF91FBD10B500F0B5F910BD00F0E4F960
:100180001146FFF7EFFF01F0EBFD00F0DFFB03B4DA
:10019000FFF7F0FF03BC00F0BBFD000007488047FD
:1001A00007480047FEE7FEE7FEE7FEE7FEE7FEE75B
:1001B00004480549054A064B70470000F918000835
:1001C000BD000008000200200008002000040020FC
:1001D000000400200FB4054910B503AA029800F0EE
:1001E000E5F810BC08BC04B0184700006C00002003
:1001F000F8B50E460446002020622046E168884794
:10020000002829D0252802D06268A16820E0E16892
:1002100020460027884705001ED028464138192867
:1002200002D80127FF0220353246204627602946A2
:10023000FFF790FF002808D0012804D0F61DF6082B
:10024000F6000836D9E7361DD7E762682846A16868
:100250009047206A401CCFE7206AF8BD70B504467D
:100260000D4621461068C046C0462188090502D5C2
:100270000F4A7A4402E00E4A7A440E3223460021A5
:10028000243305E006070009360F965D5E54491CCD
:100290000028F7D120780023000705D5702D03D062
:1002A000002901D002231132204600F026F870BD4B
:1002B0000C1E000001E004C0091F0429FBD28B07BB
:1002C00001D50280801CC90700D002707047002948
:1002D0000BD0C30702D00270401C491E022904D370
:1002E000830702D50280801C891EE3E70022EEE727
:1002F0000022DFE7704770477047FFB504460D46A0
:1003000081B0243000902168880604D51022E0696D
:100310009143216000E00120A84201DD471B00E07D
:1003200000270498A1697A191018081AA06120788A
:10033000C00602D42046C046C046002608E0039806
:100340006268A168805D9047206A401C761C20622C
:1003500004988642F3DB2078C0060AD52046C046C2
:10036000C04606E06268A16830209047206A401CC1
:10037000206238467F1E0028F4DC07E0009862689F
:10038000A168405D9047206A401C206228466D1E8F
:100390000028F3DC2046C046C0462078000602D57F
:1003A000022005B0F0BD0120FBE70000084B70B54E
:1003B0000D467B4400F013F80446284600F022F86E
:1003C000002802D00020C04370BD204670BD000050
:1003D000AD1C000001694A1C02610878704700B535
:1003E0008FB0029100210591054901937944039151
:1003F000114604906846FFF7FBFE0FB000BD0000F9
:10040000E5FFFFFFC06880210840704710B54348F2
:100410005421FFF76DFF42485421FFF769FF41481F
:100420005421FFF765FF40483C493D4B404A01607D
:100430003E4803603B4810605A1C0A65411C196520
:10044000012101653C48354A3AA1784400F0E2F9BF
:10045000002804D1384878440C3800F07FFA384836
:100460002F4A36A1784400F0D5F9002804D1344849
:1004700078440C3800F072FA32482A4A2FA17844A6
:1004800000F0C8F9002804D12E4878440C3800F058
:1004900065FA40232148DC000021224600F094F94F
:1004A000002804D0244878445C3800F057FA1C48EF
:1004B00022464023002100F087F9002804D020487C
:1004C00078445C3800F04AFA16482246102300218E
:1004D00000F07AF9002804D01A4878445C3800F01B
:1004E0003DFA10BD0F4870B5006D44080B4864001C
:1004F00000F008FA0A4800F005FA0A4800F002FA8B
:1005000009E0206D450820466D0000F0FBF920460B
:1005100000F039F82C46002CF3D170BD18000020F3
:100520006C000020C000002000000020040000201B
:1005300008000020720000005C1C00007700000032
:10054000461C0000301C0000754600F041FAAE4623
:10055000050069465346C008C000854618B020B55E
:10056000FFF726FE60BCB64600260027C0C5C0C502
:10057000C0C5C0C5C0C5C0C5C0C5C0C5403D49088F
:1005800049008D46704770B50446051F00F024FAF7
:100590000068002C1AD0446801E020466468002CF2
:1005A00001D0AC42F9D301680A18AA4204D12A68E2
:1005B00005468918016000E0456028684119A1429C
:1005C00005D16168696021684018286070BD6C6061
:1005D00070BD0000F7B505460C46C8680521C90482
:1005E0008843012189050843E060800602D5204642
:1005F00000F049FB7249E0680140022903D020461F
:1006000000F0E0FABEE00521012249030140D203D7
:1006100091420FD1C00306D56168E06A884200D8D4
:100620000846606006E02069E0626060606900F092
:10063000C8F9A061A1680022EEB200290EDAE068D4
:1006400083050BD4C943A1600921226049030843F3
:10065000E0606068411C61600670AEE0E068012106
:1006600049030843E060002020602069002831D160
:10067000606900F098F9012527462437ED0200282B
:1006800016D0A0898005800F08D0E06900F0EEF94F
:100690000028206102D0E068284318E0012027618B
:1006A000E061E068032109028843012189020DE02D
:1006B000E06900F0DBF900282061EFD0E068284312
:1006C000E0608105890F03D1FF2101310843E0601B
:1006D00020696060E2683B4F2569D00520D56168DC
:1006E000E06A884200D80846411B05D022462846C9
:1006F00000F072FA002845D10298002804D0E56283
:1007000000206560A06055E0681CE0626060E06900
:10071000401EA060E0683843E06030462E70FEBDA9
:100720000298002801D03A4009E06068411C6160ED
:100730000670E06838430A2EE06006D00022E16AC5
:100740006068814203D90B4602E00122F7E70346C5
:10075000A7895B1B7F0504D4E7699F4201DD002A5E
:100760001ED0814200D801460F1A0020E562656064
:10077000002BA06009DD22461946284600F02CFA1D
:10078000002802D00020C043FEBD002F08D0A06981
:10079000E5626560C01BA061E06810210843E0606D
:1007A0000298002809D06168A069E562491B4018D9
:1007B0006560A0610120C043FEBD3046FEBD000063
:1007C000821000000000010070B5C468A50713D0B6
:1007D000650211D4D51FF93D0AD0FF3D6D1E07D02B
:1007E000FF3DFF3D022D07D101462431012305E0E5
:1007F000074E5D1EB54201D3012070BD0161C3618A
:1008000041600F2109028C431443C460002070BD75
:10081000FFFFFF00F7B516460C460098002843D0AE
:10082000104600F06FF82078611C61280AD0722809
:1008300002D0772839D102E00125002404E0022506
:10084000042401E02D4D0824022203230127087807
:10085000491C2B2806D0622807D02039C87F74286D
:1008600007D008E01D431443F1E7042005433C434F
:10087000EDE7102004430098214600F075F8411C74
:1008800013D00021316171600121F5604902F161ED
:100890007061200704D530460222002100F018F9CB
:1008A000306D384330653046FEBD0020FEBDF8B5E2
:1008B0000D460646124C206DC10704D0410804D0F5
:1008C00044086400F7E7224610E0542000F0CEF818
:1008D000070010D07908206D490001221143084318
:1008E000542120653846FFF703FD3A462946304635
:1008F000FFF790FFF8BD0020F8BD00000280000067
:1009000018000020F8B504460026476900690090E9
:10091000E568A80717D0204600F08FF9384600F0A8
:100920002DF8002800DA761E280502D50098FFF77A
:100930002AFE4C212046FFF7DBFC206D40084000DA
:1009400020653046F8BD0020C043F8BD10B5044610
:10095000C046C0462046FFF71AFC10BD10B500F097
:10096000BDF900F0B5F910BD0EB50191009000F091
:1009700037FA029069460120ABBE0EBD08B5694644
:1009800000900220ABBE08BD1FB56B4607C3694689
:100990000520ABBE04B010BD1FB56C460FC4694640
:1009A0000620ABBEF6E708B5694600900920ABBE4D
:1009B00008BD1CB500900A2001916946ABBE1CBD64
:1009C000704708B5694600900C20ABBE08BD00001A
:1009D0000048704714010020004870471C010020A7
:1009E000704770477047704738B504460A46002084
:1009F0006946C046C046002805D0024620460099F8
:100A000000F093F9012038BD10B5012000F0E2F9A3
:100A100010BDF8B5C046C046054600200C460C2067
:100A2000C0460646A819A0420DD9324669460020A4
:100A3000C046C046070001D100F0CCF90098A042A2
:100A400000D00546C419FFF7C7FFF61D074605602D
:100A5000F008C0004619284600F061F9B44204D0FD
:100A600031463868A21B00F060F9F8BD70B5064643
:100A7000FFF7B2FF056830460B30C408E400B4420B
:100A800001D8002070BD68682A46002818D0016887
:100A9000A14211D30B46214608318B4208D343684B
:100AA00001194B6003681B1B0B605160046001E07F
:100AB00041685160001D70BD024640680028E6D1C3
:100AC00021462846FFF790FF0028DCD170BD0000CA
:100AD000F8B5044616460D464769007B800730D0BE
:100AE0003846FFF760FF00282BD132461026002A37
:100AF00025D0012A02D0022A23D104E0204600F0AA
:100B00002EF945191BE03846FFF75BFFE1683143DA
:100B10000028E16004DA204600F054F80120F8BD16
:100B2000C9030BD56268E16A914200D81146A269F7
:100B300089182269891A814200DD08462D18002D86
:100B400001DA0220F8BDE16A6068E268814206D2FB
:100B50009103E06203D5012149048A433243A66927
:100B6000AE4211DCE16A814201D90B4600E0034646
:100B70009F192369FF1AAF4206DD814201D90F4652
:100B800000E007469F4206D1202002430020A060DB
:100B9000A56220600DE0AD1BE669AE1B8142A66038
:100BA00000D90846C01A281A206058196060202011
:100BB0008243034802400020E26040342072F8BDC6
:100BC000BFCFD7FFC1688022114392039143C16018
:100BD0000021816001607047F7B515460C4682B070
:100BE000506900903748D768074209D0A969009832
:100BF000FFF7DFFE002815DB3248C0430740EF60F7
:100C0000314EB44200D826463B46324602990098FF
:100C1000FFF7BAFE4200A9695208B21A89180028E3
:100C2000A96106D02846FFF7CDFF0020C04305B0DC
:100C3000F0BDA41BE4D10020F9E770B504460569B6
:100C4000C06A6168884200D80846E1680522D2047B
:100C50009143E160C90314D5A84209D02246411B43
:100C60002846FFF7B9FF002802D00020C04370BD1E
:100C7000E56200206560A060E06801210904884306
:100C8000E060002070BD10B50446C0682021884394
:100C9000E060A16AA06988420ED02046FFF7CDFF30
:100CA000E06803210903884310210843E060A06A3B
:100CB000A0612069E06260600449E0680840E0608B
:100CC00010BD000010000200FFFFFF7FBFBFFFFF4D
:100CD00010B5002801D000F01BF810BD10B501467A
:100CE00002A000F05DF8012010BD000053494752FA
:100CF000545245443A2052656469726563743A20DF
:100D000063616E2774206F70656E3A2000000000EA
:100D100001491820ABBEFEE7260002007047002103
:100D20000160416070470C20704710B50346406871
:100D300001E003464068002801D08842F9D31868D2
:100D4000C3188B4206D0CB1CD808C000001D411A26
:100D5000521A0146081D0A60FFF715FC10BD10B5B8
:100D60000146C268900703D0900607D5886A0AE05A
:100D700000F05EF801210160881E10BD8B69486893
:100D8000C0180B69C01A40310B7A002B02D0497A87
:100D9000401A10BD1103FCD50028FADD401E10BD1D
:100DA00070B505460C460A2000E06D1C00F03AF8CC
:100DB000002D06D028780028F7D102E0641C00F04E
:100DC00031F8002C02D020780028F7D10A2000F05A
:100DD00029F870BD10B500F02FF8FFF779FF10BDAE
:100DE00030B5441C03E00178401C00290DD0810778
:100DF000F9D10B4BDD0104C8D11A91432940FAD037
:100E0000001B0A0603D0C01E30BD001B30BD0A0403
:100E100001D0801E30BD0902FCD0401E30BD000054
:100E20000101010108B5694608700320ABBE08BD89
:100E3000004870471401002010B5012805D000219A
:100E400003A0FFF7ADFF012010BD09A1F8E70000E6
:100E500053494752544D454D3A204F7574206F66A3
:100E60002068656170206D656D6F7279000000000B
:100E70003A2048656170206D656D6F727920636FEF
:100E80007272757074656400F0B58BB008900A6872
:100E9000002A00D1CAE00F4665480899814201D076
:100EA000052000E00320009000231C4609930197D1
:100EB0000CE0294331605B1C3A681046D840099920
:100EC000091D0991A41C002800D1AFE00126049659
:100ED0009E4032400392EED00793384603273946AE
:100EE000A140C9432346446825463D406A1E012A65
:100EF0000294069313D8059108998A68059F3A4091
:100F0000C7689F4017438F60E206D20F079B9A4045
:100F10004F68B743084605991743476007E0032D1C
:100F20000898079B03D13D46019F029C20E0C268C0
:100F30000A40019FBE680698864016430898C6601E
:100F40000898022D029C13D105911C21099A114089
:100F50000F228A40DD08AD0045192E6A96433A6992
:100F60008A400599324308982A627C680325254007
:100F7000069B9D4002680A402A430260A1031C466A
:100F8000079B890F97D05B480168049E314301603D
:100F9000016831400A910322194691430A9A264872
:100FA0000D580922D2060898904208D0234A904250
:100FB00006D0234A9042009E02D1022600E000267D
:100FC0000C220998024037460F269640B5431A482E
:100FD000091897402F430F60164EB168019F78683B
:100FE000C20210D5039D2943B160F168820210D47A
:100FF000A943F1607168820310D4A943716031681C
:10100000C00311D555E7039DA943B160F168820281
:10101000EED52943F16071688203EED529437160F2
:101020003168C00300D544E7A94343E70BB0F0BDE6
:10103000000C004800040140080001400004004882
:1010400000080048002A02D0182281507047282248
:1010500081507047054800687047C0461A480078BC
:1010600002490A68101808607047C046FC01002059
:1010700080B5C448016810220A430260032000F0D2
:1010800005F800F023F8002080BDC04670B5044686
:101090007D20C0000C4E317800F0E8FE0146C148CA
:1010A000006800F0E3FE00F0A1FB0125032C08D846
:1010B000002806D10025E84321462A4600F01CF806
:1010C0007460284670BDC0460C00002082B00948FC
:1010D00001680122114301600168114001910199E9
:1010E000110742680A434260406808400090009837
:1010F00002B0704718100240002805D403220346AE
:1011000093430A4A9A1803E00C220240064BD21875
:101110008007C00E8901C9B28140FF238340106857
:10112000984308431060704714ED00E000E400E0CD
:10113000F0B585B004468078C007414B4FD0012000
:10114000039001071A1F10680840029006D110682A
:1011500008431060106808400490049800920191C0
:10116000384E3068C00513D40398070230683843FE
:101170003060FFF76FFF05463068384208D1FFF74F
:1011800069FF401B6428F7D90325284605B0F0BD48
:10119000032528022A4B1968014012D062680240D8
:1011A00091420ED00398000419681A6802431A602D
:1011B0001A6882431A600846234A10401860C8071C
:1011C00030D11868204908406168014319600298CD
:1011D000002804D1009A10680199884310602068A3
:1011E000C10705D181060BD400254005CDD510E0FF
:1011F000196903229143A2680A431A618106F3D553
:10120000196910229143E2680A431A6100254005DA
:10121000BBD51869402188432169014319612846DB
:1012200005B0F0BDFFF716FF0646574F044B186890
:101230008007C6D4FFF70EFF801BB842F6D9A4E79B
:101240002010024000700040FFFCFFFFF0B581B0AD
:1012500000284ED004464B4A1368012003408B42BD
:1012600008D213680126B3430B431360126832405F
:101270008A423FD1009121688A075A4B10D54A070C
:1012800006D5072212021B681343564A1360554BBA
:101290001A68F0239A43A3681343524A1360514BD0
:1012A000C9072AD13749086801263040009A904280
:1012B00005D90868B04308600868C0071AD12078CB
:1012C000400706D50720000219688143E0680843FB
:1012D000186019680C220A404348082A18D18A026B
:1012E000120F424B9C5C3F4B9A6AC90332D441486F
:1012F00037E00126304601B0F0BD61681A1F0229AF
:1013000008D001290BD1126892030646F2D50AE0F3
:10131000044627E0126892010646EBD503E0126806
:1013200092070646E6D518680326B04308431860BE
:10133000FFF790FE0746144D2A4B18680C21014018
:10134000606880008142ADD0FFF784FEC01BA842D8
:10135000F2D9CFE70F210A402549895C00F086FDCC
:10136000204B444318680006000F0849085CC4403D
:101370000C4804600320FFF789FE0026304601B0C8
:10138000F0BDC0460020024088130000B6200008CF
:1013900004480068134909684905490F024A515C2D
:1013A000C840704714000020C620000810B50D4941
:1013B0000A680C2313400C48082B09D193021B0F19
:1013C0000A4CE45C896AD20303D40A4844432046A9
:1013D00010BD0F221140064A515C00F047FD444306
:1013E000204610BD0410024000127A00CE200008F2
:1013F000DE20000800093D00F0B587B0044601205A
:10140000002C00D1EAE104902078C007F44E059446
:1014100026D071680C20014004291AD0716801405F
:10142000082902D17068C00313D461680120470401
:10143000002900D184E1052900D198E1012900D1DA
:1014400099E1010432688A4332608104306888433C
:1014500094E13068800303D56068002800D1BDE0C6
:10146000207880071AD570680007800F07D0706851
:101470000C210140082975D17068C00372D430680E
:101480008007059C03D5E068012800D0A6E03068FD
:10149000F82188432169C90001433160059C207807
:1014A000000724D42078400736D42078C00600D422
:1014B000B4E005984069411D00D1A3E0012800D0A7
:1014C000F4E0706B042101437163706B01210143EF
:1014D0007163FFF7BFFD0546706B800700D595E08F
:1014E000FFF7B8FD411B03200229F5D976E1706AA8
:1014F000E169002960D0012108437062FFF7AAFD6D
:101500000546706A8007CDD4FFF7A4FD401B022872
:10151000F7D9032007B0F0BD012003900107F0695F
:101520000840029006D1F0690843F061F069084074
:10153000069006980191AB4F3868C00528D40398EF
:101540000402386820433860FFF784FD0546386898
:1015500020421DD1FFF77EFD401B6428F7D90320F0
:1015600007B0F0BD3068059CE168002939D0012141
:1015700008433060FFF76EFD05463068800786D46B
:10158000FFF768FD401B0228F7D9032007B0F0BD24
:1015900005988068944F002800D19CE0052800D170
:1015A000AEE0012800D1AFE0306A03998843306291
:1015B000306A04218843AAE0012188437062FFF762
:1015C00049FD0546706A800700D46BE7FFF742FDCE
:1015D000401B0228F6D9032007B0F0BD049807B0DD
:1015E000F0BD012188433060FFF734FD05463068C7
:1015F000800700D452E7FFF72DFD411B032002298D
:10160000F5D9EBE0706B042188437063706BF821AF
:10161000884305998969C900014371630598046A83
:10162000002C1ED070680C21014008291CD1012C0F
:10163000049800D1D2E00120030471680B40F26AE3
:10164000059D6C6AA34200D0C8E00F231A40EC6AE3
:10165000A24200D0C2E09A041140AA6A914200D08E
:10166000BCE0002007B0F0BD012002063168049202
:10167000914331604706FFF7EDFC0546022C0BD184
:10168000049C3068384200D188E0FFF7E3FC411B3E
:1016900003200229F5D9A1E030683842E1D0FFF7F4
:1016A000D9FC411B03200229F6D997E0706B042175
:1016B00001437163706B012188437063FFF7CAFCBB
:1016C0000546706B8007A9D5FFF7C4FC411B0320BA
:1016D0000229F6D982E0306A039988433062306A81
:1016E000042188433062FFF7B5FC0546306A800765
:1016F0001CD5FFF7AFFC411B0320B942F6D96DE0C2
:10170000306A042101433162306A03990843306230
:10171000FFF7A0FC0546306A800707D4FFF79AFC64
:10172000401BB842F7D9032007B0F0BD029800284B
:10173000059C00D0B9E6F06901998843F061B4E6F0
:10174000010432688A433260800431688143316029
:10175000FFF780FC0546059C3068384200D17FE6E3
:10176000FFF778FC411B03206429F5D936E081049A
:1017700032680A4332600104306808433060FFF782
:1017800069FC05463068384200D069E6FFF762FC24
:10179000401B6428F6D9032007B0F0BDF06A0F2182
:1017A0008843059AD16A0143F1623D2000047168C3
:1017B0008143906A0843516A014371603068204355
:1017C0003060FFF747FC04463068384200D048E7F5
:1017D000FFF740FC011B03200229F5D907B0F0BD3B
:1017E000001002400070004088130000401E010EEF
:1017F00001D0012070470749074A50600748036835
:101800000B400321890759180160002090600721CF
:1018100011607047FFFFFF0010E000E020ED00E0E6
:10182000B0B5002817D00446C06F002805D1782035
:1018300000212154204600F02BF82420E067206886
:1018400001680125A9430160204600F021F9002824
:1018500003D02846B0BD0120B0BD606A002802D088
:10186000204600F04AF80920C00221684A688243F5
:101870004A6088682A2290438860086801220243EF
:101880000A60204600F0A2F805462846B0BD0000D8
:1018900080B586B00068C149884201D006B080BDDD
:1018A0001048416801220592930319434160416841
:1018B000194000910099510402680A4302600068CF
:1018C0000840009000200390022002900320049022
:1018D000400201900920C006009901A9FFF7D4FA3F
:1018E00006B080BD14100240FEE7FEE77047704767
:1018F00080B5FFF7B3FB80BD7047B0B5416ACA073A
:101900000CD18A0714D44A071CD40A0724D4CA0667
:101910002CD48A0634D44A063CD44CE0012252042A
:1019200003685C689443826A22435A608A07EAD556
:101930000122120403685C689443C26A22435A601D
:101940004A07E2D50122920403685C689443026B63
:1019500022435A600A07DAD50122D20303685C6881
:101960009443426B22435A60CA06D2D50122120325
:1019700003689C689443826B22439A608A06CAD5A6
:101980000122520303689C689443C26B22439A600D
:101990004A0610D501221305026854689C43056C61
:1019A0002C4354609D4206D103235B0554689C433D
:1019B000436C23435360090607D50121C90402681B
:1019C00053688B43806C18435060B0BDF0B583B052
:1019D0000446064678360027F760FFF73BFB0346D0
:1019E0002068016809071FD528480090012002904F
:1019F0004105002220461D4600F0E0F8002811D0E5
:101A0000EFF31080029981F3108821680A6880231F
:101A10009A430A6080F310882020E0670320377023
:101A200003B0F0BD20682B460068400725D5174855
:101A300000900125A9050022204600F0BFF80028EB
:101A40001BD0EFF3108085F310880921490122682B
:101A500013688B43136080F31088EFF3108085F3D5
:101A6000108821688A68AA438A6080F31088202041
:101A7000B0600320377003B0F0BD2020E067B06095
:101A8000276667663846377003B0F0BDFFFFFF0179
:101A9000B0B50446006801683E4A0A40A16823695F
:101AA0000B4365691D431543E1690D43056003223E
:101AB000120343689343E2681A434260A269236AAF
:101AC00013430B221202856895431D438560324AF9
:101AD000904209D0314A904208D1314800688007CD
:101AE000000F30A2135802E0002300E0102301256C
:101AF000EA03304891420FD1082B46D87B441B792A
:101B00005B009F4404421F42194242421E00FFF7FD
:101B10003FFC002816D137E0082B36D87B441B79D0
:101B20005B009F44043225321F3232322400FFF71B
:101B30002FFC00281CD127E0FFF738FC002801D13A
:101B400022E01046400061684A08101800F08EF943
:101B50000246103A18498A4217D201400007400F46
:101B600008430FE0FFF722FC002801D10CE01046EB
:101B700061684A08101800F079F9014610390E4AD8
:101B8000914202D22168C86000250020A066E0666C
:101B90002846B0BDF369FFFF004400400038014013
:101BA00030100240000000000400000008000000A7
:101BB0000200000000127A00F0FF0000F0B587B0CC
:101BC00015460F460668F1693940C91B4A424A4129
:101BD0000021AA4225D106930C9C002C24D00B4650
:101BE000611C26D1F1693940C91B4A424A41AA42C7
:101BF00014D1F1693940C91B4A424A41AA420DD168
:101C0000F1693940C91B4A424A41AA4206D1F169E9
:101C10003940C91B4A424A41AA42E3D0184607B09C
:101C2000F0BD084607B0F0BDFFF714FA032007B077
:101C3000F0BD029301467831039101210191C9025F
:101C40000491059006E0C9693940CA1B51425141CF
:101C5000A9424BD1FFF7FEF90699411A0323A1428D
:101C6000DCD8059801680A685207ECD5CA691207E2
:101C70003FD4CA692646049C22423446E3D01F461C
:101C800004980862EFF31082012181F31088092380
:101C90005B010598046825689D43256082F31088E0
:101CA000EFF3108281F31088059803689C688C43D9
:101CB0009C60059882F31088026E012A0BD1EFF325
:101CC000108281F3108801680B681024A3430B6015
:101CD000059882F310882021039B996000220266F8
:101CE00082661A70D960384607B0F0BD029807B016
:101CF000F0BD08250D62EFF31081019880F3108884
:101D000009225201059B1B681C6894431C6081F3E7
:101D10001088EFF3108180F31088059A1268936899
:101D200083439360059B81F31088196E01290CD1C0
:101D3000EFF31081012282F310881A6813681024CF
:101D4000A3431360059B81F310882021039A9160BF
:101D50000021196699661170D56007B0F0BD0000CA
:101D600096B0FFF785F90AAD281D2C21FEF7C0FAC1
:101D70000024129410200E9001270D9702200A9043
:101D800005940494039402942846FFF735FB002839
:101D900003D0EFF3108072B6FEE70994089407941D
:101DA0000720069006A82146FFF750FA002803D026
:101DB000EFF3108072B6FEE70394019701A8FFF7D6
:101DC000B7F9002803D0EFF3108072B6FEE70E9447
:101DD000F8041E490A6802430A600A680240019238
:101DE000019878040A6802430A6009680140019179
:101DF00001983D02164E304629462246FFF722F949
:101E00000D940C940B970A950AA93046FFF73CF8FD
:101E100010480C214B2252020F4B03604260846039
:101E2000C460046141618461C46104624462FFF77B
:101E3000F7FC002803D0EFF3108072B6FEE707A48A
:101E400001212046FEF7C6F9FAE7C0461410024009
:101E500000080048740100200038014043686563B1
:101E60006B73756D3A2025780A00000043088B4299
:101E70001AD3002203098B4279D3030A8B425ED323
:101E8000030B8B4242D3030C8B4227D30902FF2260
:101E900012BA030C8B4202D31212090203D0030BB5
:101EA0008B4233D31AE0D3E0411A8041401C704783
:101EB00003460B4371D443088B42F5D30022030938
:101EC0008B4254D3030A8B4239D3030B8B421DD36D
:101ED000030C8B4202D394466EE0090AC30B8B427B
:101EE00001D3CB03C01A5241830B8B4201D38B0326
:101EF000C01A5241430B8B4201D34B03C01A5241CB
:101F0000030B8B4201D30B03C01A5241C30A8B420D
:101F100001D3CB02C01A5241830A8B4201D38B02F8
:101F2000C01A5241430A8B4201D34B02C01A52419C
:101F3000030A8B4201D30B02C01A5241CDD2C3090E
:101F40008B4201D3CB01C01A524183098B4201D38A
:101F50008B01C01A524143098B4201D34B01C01A75
:101F6000524103098B4201D30B01C01A5241C308ED
:101F70008B4201D3CB00C01A524183088B4201D35C
:101F80008B00C01A524143088B4201D34B00C01A48
:101F90005241411A524110007047CA0F00D04942C5
:101FA000031000D34042534000229C4603098B4259
:101FB0002DD3030A8B4212D38901FC2212BA030AE1
:101FC0008B420CD3890192118B4208D38901921163
:101FD0008B4204D3890137D0921100E08909C309EB
:101FE0008B4201D3CB01C01A524183098B4201D3EA
:101FF0008B01C01A524143098B4201D34B01C01AD5
:10200000524103098B4201D30B01C01A5241C3084C
:102010008B4201D3CB00C01A524183088B4201D3BB
:102020008B00C01A5241D9D243088B4201D34B00D6
:10203000C01A5241411A00D201465241104663462D
:102040005B1000D34042704763465B1000D34042B0
:1020500001B50021004201D0C9430846C046C04630
:1020600002BD10B58A68002A03DC0022FEF7B2FA2E
:1020700010BD521E8A604A68C0B2531C4B6010707B
:1020800010BD30313233343536373839414243446C
:1020900045464030580030313233343536373839E0
:1020A000616263646566403078003A7474003A7423
:1020B00074003A7474000000000000000000010287
:1020C00003040607080900000000010203040203DC
:1020D0000405060708090A0B0C0D0E0F101001026B
:1020E000030405060708090A0B0C0D0E0F1000006B
:1020F000102100080000002018000000180100084E
:102100002821000818000020E80700003801000816
:1021100000000000000000000000000001000000BE
:082120000400000000127A0027
:04000005080000BD32
:00000001FF
